{"abi":[{"type":"constructor","inputs":[{"name":"_verifyHelper","type":"address","internalType":"address payable"},{"name":"_endpoint","type":"address","internalType":"address"}],"stateMutability":"nonpayable"},{"type":"fallback","stateMutability":"payable"},{"type":"receive","stateMutability":"payable"},{"type":"function","name":"PACKET_VERSION","inputs":[],"outputs":[{"name":"","type":"uint8","internalType":"uint8"}],"stateMutability":"view"},{"type":"function","name":"defaultOption","inputs":[],"outputs":[{"name":"","type":"bytes","internalType":"bytes"}],"stateMutability":"view"},{"type":"function","name":"endpoint","inputs":[],"outputs":[{"name":"","type":"address","internalType":"address"}],"stateMutability":"view"},{"type":"function","name":"isSupportedEid","inputs":[{"name":"","type":"uint32","internalType":"uint32"}],"outputs":[{"name":"","type":"bool","internalType":"bool"}],"stateMutability":"pure"},{"type":"function","name":"localEid","inputs":[],"outputs":[{"name":"","type":"uint32","internalType":"uint32"}],"stateMutability":"view"},{"type":"function","name":"lzTokenFee","inputs":[],"outputs":[{"name":"","type":"uint256","internalType":"uint256"}],"stateMutability":"view"},{"type":"function","name":"messageLibType","inputs":[],"outputs":[{"name":"","type":"uint8","internalType":"enum MessageLibType"}],"stateMutability":"pure"},{"type":"function","name":"nativeFee","inputs":[],"outputs":[{"name":"","type":"uint256","internalType":"uint256"}],"stateMutability":"view"},{"type":"function","name":"owner","inputs":[],"outputs":[{"name":"","type":"address","internalType":"address"}],"stateMutability":"view"},{"type":"function","name":"quote","inputs":[{"name":"","type":"tuple","internalType":"struct Packet","components":[{"name":"nonce","type":"uint64","internalType":"uint64"},{"name":"srcEid","type":"uint32","internalType":"uint32"},{"name":"sender","type":"address","internalType":"address"},{"name":"dstEid","type":"uint32","internalType":"uint32"},{"name":"receiver","type":"bytes32","internalType":"bytes32"},{"name":"guid","type":"bytes32","internalType":"bytes32"},{"name":"message","type":"bytes","internalType":"bytes"}]},{"name":"","type":"bytes","internalType":"bytes"},{"name":"_payInLzToken","type":"bool","internalType":"bool"}],"outputs":[{"name":"","type":"tuple","internalType":"struct MessagingFee","components":[{"name":"nativeFee","type":"uint256","internalType":"uint256"},{"name":"lzTokenFee","type":"uint256","internalType":"uint256"}]}],"stateMutability":"view"},{"type":"function","name":"renounceOwnership","inputs":[],"outputs":[],"stateMutability":"nonpayable"},{"type":"function","name":"send","inputs":[{"name":"_packet","type":"tuple","internalType":"struct Packet","components":[{"name":"nonce","type":"uint64","internalType":"uint64"},{"name":"srcEid","type":"uint32","internalType":"uint32"},{"name":"sender","type":"address","internalType":"address"},{"name":"dstEid","type":"uint32","internalType":"uint32"},{"name":"receiver","type":"bytes32","internalType":"bytes32"},{"name":"guid","type":"bytes32","internalType":"bytes32"},{"name":"message","type":"bytes","internalType":"bytes"}]},{"name":"_options","type":"bytes","internalType":"bytes"},{"name":"_payInLzToken","type":"bool","internalType":"bool"}],"outputs":[{"name":"fee","type":"tuple","internalType":"struct MessagingFee","components":[{"name":"nativeFee","type":"uint256","internalType":"uint256"},{"name":"lzTokenFee","type":"uint256","internalType":"uint256"}]},{"name":"encodedPacket","type":"bytes","internalType":"bytes"},{"name":"options","type":"bytes","internalType":"bytes"}],"stateMutability":"nonpayable"},{"type":"function","name":"setDefaultOption","inputs":[{"name":"_defaultOption","type":"bytes","internalType":"bytes"}],"outputs":[],"stateMutability":"nonpayable"},{"type":"function","name":"setMessagingFee","inputs":[{"name":"_nativeFee","type":"uint256","internalType":"uint256"},{"name":"_lzTokenFee","type":"uint256","internalType":"uint256"}],"outputs":[],"stateMutability":"nonpayable"},{"type":"function","name":"setWhitelistCaller","inputs":[{"name":"_whitelistCaller","type":"address","internalType":"address"}],"outputs":[],"stateMutability":"nonpayable"},{"type":"function","name":"supportsInterface","inputs":[{"name":"interfaceId","type":"bytes4","internalType":"bytes4"}],"outputs":[{"name":"","type":"bool","internalType":"bool"}],"stateMutability":"view"},{"type":"function","name":"testHelper","inputs":[],"outputs":[{"name":"","type":"address","internalType":"contract TestHelperOz5"}],"stateMutability":"view"},{"type":"function","name":"transferOwnership","inputs":[{"name":"newOwner","type":"address","internalType":"address"}],"outputs":[],"stateMutability":"nonpayable"},{"type":"function","name":"treasury","inputs":[],"outputs":[{"name":"","type":"address","internalType":"address"}],"stateMutability":"view"},{"type":"function","name":"validatePacket","inputs":[{"name":"packetBytes","type":"bytes","internalType":"bytes"}],"outputs":[],"stateMutability":"nonpayable"},{"type":"function","name":"version","inputs":[],"outputs":[{"name":"major","type":"uint64","internalType":"uint64"},{"name":"minor","type":"uint8","internalType":"uint8"},{"name":"endpointVersion","type":"uint8","internalType":"uint8"}],"stateMutability":"pure"},{"type":"function","name":"whitelistCaller","inputs":[],"outputs":[{"name":"","type":"address","internalType":"address"}],"stateMutability":"view"},{"type":"function","name":"withdrawFee","inputs":[{"name":"_to","type":"address","internalType":"address"},{"name":"_amount","type":"uint256","internalType":"uint256"}],"outputs":[],"stateMutability":"nonpayable"},{"type":"function","name":"withdrawLzTokenFee","inputs":[{"name":"_to","type":"address","internalType":"address"},{"name":"_amount","type":"uint256","internalType":"uint256"}],"outputs":[],"stateMutability":"nonpayable"},{"type":"event","name":"OwnershipTransferred","inputs":[{"name":"previousOwner","type":"address","indexed":true,"internalType":"address"},{"name":"newOwner","type":"address","indexed":true,"internalType":"address"}],"anonymous":false},{"type":"error","name":"AddressEmptyCode","inputs":[{"name":"target","type":"address","internalType":"address"}]},{"type":"error","name":"AddressInsufficientBalance","inputs":[{"name":"account","type":"address","internalType":"address"}]},{"type":"error","name":"FailedInnerCall","inputs":[]},{"type":"error","name":"InvalidEndpoint","inputs":[{"name":"expected","type":"address","internalType":"address"},{"name":"actual","type":"address","internalType":"address"}]},{"type":"error","name":"LZ_NotImplemented","inputs":[]},{"type":"error","name":"LzTokenIsAddressZero","inputs":[]},{"type":"error","name":"OnlyEndpoint","inputs":[]},{"type":"error","name":"OnlyWhitelistCaller","inputs":[]},{"type":"error","name":"OwnableInvalidOwner","inputs":[{"name":"owner","type":"address","internalType":"address"}]},{"type":"error","name":"OwnableUnauthorizedAccount","inputs":[{"name":"account","type":"address","internalType":"address"}]},{"type":"error","name":"SafeERC20FailedOperation","inputs":[{"name":"token","type":"address","internalType":"address"}]},{"type":"error","name":"ToIsAddressZero","inputs":[]},{"type":"error","name":"TransferFailed","inputs":[]},{"type":"error","name":"Transfer_NativeFailed","inputs":[{"name":"_to","type":"address","internalType":"address"},{"name":"_value","type":"uint256","internalType":"uint256"}]},{"type":"error","name":"Transfer_ToAddressIsZero","inputs":[]}],"bytecode":{"object":"0x60e060405234801562000010575f80fd5b50604051620019a4380380620019a4833981016040819052620000339162000172565b33806200005957604051631e4fbdf760e01b81525f600482015260240160405180910390fd5b62000064816200010b565b50600180546001600160a01b0319166001600160a01b0384811691909117909155811660808190525f60a0526040805163416ecebf60e01b8152905163416ecebf916004808201926020929091908290030181865afa158015620000ca573d5f803e3d5ffd5b505050506040513d601f19601f82011682018060405250810190620000f09190620001af565b63ffffffff1660c052505060636003556064600455620001db565b5f80546001600160a01b038381166001600160a01b0319831681178455604051919092169283917f8be0079c531659141344cd1fd0a4f28419497f9722a3daafe3b4186f6b6457e09190a35050565b6001600160a01b03811681146200016f575f80fd5b50565b5f806040838503121562000184575f80fd5b825162000191816200015a565b6020840151909250620001a4816200015a565b809150509250929050565b5f60208284031215620001c0575f80fd5b815163ffffffff81168114620001d4575f80fd5b9392505050565b60805160a05160c051611782620002225f395f61037c01525f6102ef01525f81816102bc015281816105b9015281816106bc015281816108ba0152610a7001526117825ff3fe60806040526004361061014e575f3560e01c8063715018a6116100b5578063996f79c01161006e578063996f79c014610432578063aec336e614610447578063d80e9bd914610466578063dabca06314610492578063f2fde38b146104b1578063fd9be522146104d057610155565b8063715018a614610357578063726075371461036b57806372d71322146103b35780638da5cb5b146103d45780638f58aa7a146103f0578063909532381461040f57610155565b80634389e58f116101075780634389e58f1461025357806354fd4d50146102815780635e280f11146102ab57806361d027b3146102de5780636251b637146103115780636750cd4c1461033757610155565b806301ffc9a71461016e5780630e97289b146101a257806312cc947f146101d95780631881d94d146101fa5780631c7c294e14610215578063334993ff1461023457610155565b3661015557005b604051632657b6c360e01b815260040160405180910390fd5b348015610179575f80fd5b5061018d610188366004610f8b565b6104ef565b60405190151581526020015b60405180910390f35b3480156101ad575f80fd5b506001546101c1906001600160a01b031681565b6040516001600160a01b039091168152602001610199565b3480156101e4575f80fd5b506101f86101f3366004610fef565b610525565b005b348015610205575f80fd5b506002604051610199919061102d565b348015610220575f80fd5b506002546101c1906001600160a01b031681565b34801561023f575f80fd5b506101f861024e366004611053565b610691565b34801561025e575f80fd5b5061027261026d36600461115a565b6106a4565b60405161019993929190611219565b34801561028c575f80fd5b50604080515f8082526020820152600291810191909152606001610199565b3480156102b6575f80fd5b506101c17f000000000000000000000000000000000000000000000000000000000000000081565b3480156102e9575f80fd5b506101c17f000000000000000000000000000000000000000000000000000000000000000081565b34801561031c575f80fd5b50610325600181565b60405160ff9091168152602001610199565b348015610342575f80fd5b5061018d610351366004611266565b50600190565b348015610362575f80fd5b506101f86107e9565b348015610376575f80fd5b5061039e7f000000000000000000000000000000000000000000000000000000000000000081565b60405163ffffffff9091168152602001610199565b3480156103be575f80fd5b506103c76107fc565b604051610199919061127f565b3480156103df575f80fd5b505f546001600160a01b03166101c1565b3480156103fb575f80fd5b506101f861040a3660046112b0565b610888565b34801561041a575f80fd5b5061042460035481565b604051908152602001610199565b34801561043d575f80fd5b5061042460045481565b348015610452575f80fd5b506101f86104613660046112da565b61097a565b348015610471575f80fd5b506104856104803660046112f5565b6109a4565b604051610199919061136b565b34801561049d575f80fd5b506101f86104ac366004611382565b6109e4565b3480156104bc575f80fd5b506101f86104cb3660046112da565b6109fc565b3480156104db575f80fd5b506101f86104ea3660046112b0565b610a3e565b5f6001600160e01b031982166325fc096160e21b148061051f57506301ffc9a760e01b6001600160e01b03198316145b92915050565b6002546001600160a01b03161580159061054a57506002546001600160a01b03163314155b1561056857604051631c2c85bb60e21b815260040160405180910390fd5b5f604051806060016040528061057e8585610afb565b63ffffffff1681526020016105938585610b1d565b81526020016105a28585610b3c565b6001600160401b0316905290506001600160a01b037f00000000000000000000000000000000000000000000000000000000000000001663a825d747826105e98686610b5e565b6105f38787610b6f565b6040516106019291906113bb565b6040805191829003822060e086901b6001600160e01b0319168352845163ffffffff166004840152602085015160248401529301516001600160401b031660448201526001600160a01b039091166064820152608481019190915260a4015f604051808303815f87803b158015610676575f80fd5b505af1158015610688573d5f803e3d5ffd5b50505050505050565b610699610b8a565b600491909155600355565b604080518082019091525f80825260208201526060807f00000000000000000000000000000000000000000000000000000000000000006001600160a01b0316331461070357604051630fd72cd960e31b815260040160405180910390fd5b61071461070f876113e0565b610bb6565b915084515f1461072457846107ae565b600580546107319061147a565b80601f016020809104026020016040519081016040528092919081815260200182805461075d9061147a565b80156107a85780601f1061077f576101008083540402835291602001916107a8565b820191905f5260205f20905b81548152906001019060200180831161078b57829003601f168201915b50505050505b90506107ba8282610c0e565b60405180604001604052806004548152602001856107d8575f6107dc565b6003545b9052969195509350915050565b6107f1610b8a565b6107fa5f610c71565b565b600580546108099061147a565b80601f01602080910402602001604051908101604052809291908181526020018280546108359061147a565b80156108805780601f1061085757610100808354040283529160200191610880565b820191905f5260205f20905b81548152906001019060200180831161086357829003601f168201915b505050505081565b610890610b8a565b6001600160a01b0382166108b757604051633d3496e160e01b815260040160405180910390fd5b5f7f00000000000000000000000000000000000000000000000000000000000000006001600160a01b031663e4fe1d946040518163ffffffff1660e01b8152600401602060405180830381865afa158015610914573d5f803e3d5ffd5b505050506040513d601f19601f8201168201806040525081019061093891906114ac565b90506001600160a01b038116610961576040516354c1781b60e01b815260040160405180910390fd5b6109756001600160a01b0382168484610cc0565b505050565b610982610b8a565b600280546001600160a01b0319166001600160a01b0392909216919091179055565b604080518082019091525f808252602082015260405180604001604052806004548152602001836109d5575f6109d9565b6003545b905295945050505050565b6109ec610b8a565b60056109f88282611512565b5050565b610a04610b8a565b6001600160a01b038116610a3257604051631e4fbdf760e01b81525f60048201526024015b60405180910390fd5b610a3b81610c71565b50565b610a46610b8a565b6001600160a01b038216610a6d57604051633d3496e160e01b815260040160405180910390fd5b5f7f00000000000000000000000000000000000000000000000000000000000000006001600160a01b031663e1758bd86040518163ffffffff1660e01b8152600401602060405180830381865afa158015610aca573d5f803e3d5ffd5b505050506040513d601f19601f82011682018060405250810190610aee91906114ac565b9050610975818484610d12565b5f610b0a600d600984866115cd565b610b13916115f4565b60e01c9392505050565b5f610b2c602d600d84866115cd565b610b3591611624565b9392505050565b5f610b4b6009600184866115cd565b610b5491611641565b60c01c9392505050565b5f610b35610b6c8484610d35565b90565b365f610b7e83605181876115cd565b915091505b9250929050565b5f546001600160a01b031633146107fa5760405163118cdaa760e01b8152336004820152602401610a29565b8051602080830151604080850151606080870151608088015160a089015160c08a015195519398610bf898600198919791966001600160a01b0316950161166f565b6040516020818303038152906040529050919050565b600154604051631f5dad8b60e31b81526001600160a01b039091169063faed6c5890610c4090859085906004016116e9565b5f604051808303815f87803b158015610c57575f80fd5b505af1158015610c69573d5f803e3d5ffd5b505050505050565b5f80546001600160a01b038381166001600160a01b0319831681178455604051919092169283917f8be0079c531659141344cd1fd0a4f28419497f9722a3daafe3b4186f6b6457e09190a35050565b604080516001600160a01b038416602482015260448082018490528251808303909101815260649091019091526020810180516001600160e01b031663a9059cbb60e01b179052610975908490610d44565b6001600160a01b038316610d2a576109758282610da5565b610975838383610e4e565b5f610b2c6051603184866115cd565b5f610d586001600160a01b03841683610e89565b905080515f14158015610d7c575080806020019051810190610d7a9190611716565b155b1561097557604051635274afe760e01b81526001600160a01b0384166004820152602401610a29565b6001600160a01b038216610dcc576040516306b7a93160e41b815260040160405180910390fd5b5f826001600160a01b0316826040515f6040518083038185875af1925050503d805f8114610e15576040519150601f19603f3d011682016040523d82523d5f602084013e610e1a565b606091505b505090508061097557604051631196f20d60e21b81526001600160a01b038416600482015260248101839052604401610a29565b6001600160a01b038216610e75576040516306b7a93160e41b815260040160405180910390fd5b6109756001600160a01b0384168383610cc0565b6060610b3583835f845f80856001600160a01b03168486604051610ead9190611731565b5f6040518083038185875af1925050503d805f8114610ee7576040519150601f19603f3d011682016040523d82523d5f602084013e610eec565b606091505b5091509150610efc868383610f06565b9695505050505050565b606082610f1b57610f1682610f62565b610b35565b8151158015610f3257506001600160a01b0384163b155b15610f5b57604051639996b31560e01b81526001600160a01b0385166004820152602401610a29565b5080610b35565b805115610f725780518082602001fd5b604051630a12f52160e11b815260040160405180910390fd5b5f60208284031215610f9b575f80fd5b81356001600160e01b031981168114610b35575f80fd5b5f8083601f840112610fc2575f80fd5b5081356001600160401b03811115610fd8575f80fd5b602083019150836020828501011115610b83575f80fd5b5f8060208385031215611000575f80fd5b82356001600160401b03811115611015575f80fd5b61102185828601610fb2565b90969095509350505050565b602081016003831061104d57634e487b7160e01b5f52602160045260245ffd5b91905290565b5f8060408385031215611064575f80fd5b50508035926020909101359150565b5f60e08284031215611083575f80fd5b50919050565b634e487b7160e01b5f52604160045260245ffd5b60405160e081016001600160401b03811182821017156110bf576110bf611089565b60405290565b5f82601f8301126110d4575f80fd5b81356001600160401b03808211156110ee576110ee611089565b604051601f8301601f19908116603f0116810190828211818310171561111657611116611089565b8160405283815286602085880101111561112e575f80fd5b836020870160208301375f602085830101528094505050505092915050565b8015158114610a3b575f80fd5b5f805f6060848603121561116c575f80fd5b83356001600160401b0380821115611182575f80fd5b61118e87838801611073565b945060208601359150808211156111a3575f80fd5b506111b0868287016110c5565b92505060408401356111c18161114d565b809150509250925092565b5f5b838110156111e65781810151838201526020016111ce565b50505f910152565b5f81518084526112058160208601602086016111cc565b601f01601f19169290920160200192915050565b8351815260208085015190820152608060408201525f61123c60808301856111ee565b8281036060840152610efc81856111ee565b803563ffffffff81168114611261575f80fd5b919050565b5f60208284031215611276575f80fd5b610b358261124e565b602081525f610b3560208301846111ee565b6001600160a01b0381168114610a3b575f80fd5b803561126181611291565b5f80604083850312156112c1575f80fd5b82356112cc81611291565b946020939093013593505050565b5f602082840312156112ea575f80fd5b8135610b3581611291565b5f805f8060608587031215611308575f80fd5b84356001600160401b038082111561131e575f80fd5b61132a88838901611073565b9550602087013591508082111561133f575f80fd5b5061134c87828801610fb2565b90945092505060408501356113608161114d565b939692955090935050565b81518152602080830151908201526040810161051f565b5f60208284031215611392575f80fd5b81356001600160401b038111156113a7575f80fd5b6113b3848285016110c5565b949350505050565b818382375f9101908152919050565b80356001600160401b0381168114611261575f80fd5b5f60e082360312156113f0575f80fd5b6113f861109d565b611401836113ca565b815261140f6020840161124e565b6020820152611420604084016112a5565b60408201526114316060840161124e565b60608201526080830135608082015260a083013560a082015260c08301356001600160401b03811115611462575f80fd5b61146e368286016110c5565b60c08301525092915050565b600181811c9082168061148e57607f821691505b60208210810361108357634e487b7160e01b5f52602260045260245ffd5b5f602082840312156114bc575f80fd5b8151610b3581611291565b601f82111561097557805f5260205f20601f840160051c810160208510156114ec5750805b601f840160051c820191505b8181101561150b575f81556001016114f8565b5050505050565b81516001600160401b0381111561152b5761152b611089565b61153f81611539845461147a565b846114c7565b602080601f831160018114611572575f841561155b5750858301515b5f19600386901b1c1916600185901b178555610c69565b5f85815260208120601f198616915b828110156115a057888601518255948401946001909101908401611581565b50858210156115bd57878501515f19600388901b60f8161c191681555b5050505050600190811b01905550565b5f80858511156115db575f80fd5b838611156115e7575f80fd5b5050820193919092039150565b6001600160e01b0319813581811691600485101561161c5780818660040360031b1b83161692505b505092915050565b8035602083101561051f575f19602084900360031b1b1692915050565b6001600160c01b0319813581811691600885101561161c5760089490940360031b84901b1690921692915050565b60ff60f81b8960f81b1681526001600160401b0360c01b8860c01b1660018201525f63ffffffff60e01b808960e01b16600984015287600d840152808760e01b16602d8401525084603183015283605183015282516116d58160718501602087016111cc565b919091016071019998505050505050505050565b604081525f6116fb60408301856111ee565b828103602084015261170d81856111ee565b95945050505050565b5f60208284031215611726575f80fd5b8151610b358161114d565b5f82516117428184602087016111cc565b919091019291505056fea2646970667358221220733fbeff56ff27c9f02b255ef77daf40cacc291935fc073679207fd6dd529ccf64736f6c63430008160033","linkReferences":{}},"methodIdentifiers":{"PACKET_VERSION()":"6251b637","defaultOption()":"72d71322","endpoint()":"5e280f11","isSupportedEid(uint32)":"6750cd4c","localEid()":"72607537","lzTokenFee()":"90953238","messageLibType()":"1881d94d","nativeFee()":"996f79c0","owner()":"8da5cb5b","quote((uint64,uint32,address,uint32,bytes32,bytes32,bytes),bytes,bool)":"d80e9bd9","renounceOwnership()":"715018a6","send((uint64,uint32,address,uint32,bytes32,bytes32,bytes),bytes,bool)":"4389e58f","setDefaultOption(bytes)":"dabca063","setMessagingFee(uint256,uint256)":"334993ff","setWhitelistCaller(address)":"aec336e6","supportsInterface(bytes4)":"01ffc9a7","testHelper()":"0e97289b","transferOwnership(address)":"f2fde38b","treasury()":"61d027b3","validatePacket(bytes)":"12cc947f","version()":"54fd4d50","whitelistCaller()":"1c7c294e","withdrawFee(address,uint256)":"fd9be522","withdrawLzTokenFee(address,uint256)":"8f58aa7a"},"id":79}