{"abi":[{"type":"function","name":"count","inputs":[],"outputs":[{"name":"","type":"uint256","internalType":"uint256"}],"stateMutability":"view"},{"type":"function","name":"initialize","inputs":[{"name":"_delegate","type":"address","internalType":"address"}],"outputs":[],"stateMutability":"nonpayable"},{"type":"function","name":"isPeer","inputs":[{"name":"_eid","type":"uint32","internalType":"uint32"},{"name":"_peer","type":"bytes32","internalType":"bytes32"}],"outputs":[{"name":"","type":"bool","internalType":"bool"}],"stateMutability":"pure"},{"type":"function","name":"lzReceiveAndRevert","inputs":[{"name":"_packets","type":"tuple[]","internalType":"struct InboundPacket[]","components":[{"name":"origin","type":"tuple","internalType":"struct Origin","components":[{"name":"srcEid","type":"uint32","internalType":"uint32"},{"name":"sender","type":"bytes32","internalType":"bytes32"},{"name":"nonce","type":"uint64","internalType":"uint64"}]},{"name":"dstEid","type":"uint32","internalType":"uint32"},{"name":"receiver","type":"address","internalType":"address"},{"name":"guid","type":"bytes32","internalType":"bytes32"},{"name":"value","type":"uint256","internalType":"uint256"},{"name":"executor","type":"address","internalType":"address"},{"name":"message","type":"bytes","internalType":"bytes"},{"name":"extraData","type":"bytes","internalType":"bytes"}]}],"outputs":[],"stateMutability":"payable"},{"type":"function","name":"lzReceiveSimulate","inputs":[{"name":"_origin","type":"tuple","internalType":"struct Origin","components":[{"name":"srcEid","type":"uint32","internalType":"uint32"},{"name":"sender","type":"bytes32","internalType":"bytes32"},{"name":"nonce","type":"uint64","internalType":"uint64"}]},{"name":"_guid","type":"bytes32","internalType":"bytes32"},{"name":"_message","type":"bytes","internalType":"bytes"},{"name":"_executor","type":"address","internalType":"address"},{"name":"_extraData","type":"bytes","internalType":"bytes"}],"outputs":[],"stateMutability":"payable"},{"type":"function","name":"oApp","inputs":[],"outputs":[{"name":"","type":"address","internalType":"address"}],"stateMutability":"view"},{"type":"function","name":"owner","inputs":[],"outputs":[{"name":"","type":"address","internalType":"address"}],"stateMutability":"view"},{"type":"function","name":"preCrime","inputs":[],"outputs":[{"name":"","type":"address","internalType":"address"}],"stateMutability":"view"},{"type":"function","name":"renounceOwnership","inputs":[],"outputs":[],"stateMutability":"nonpayable"},{"type":"function","name":"setPreCrime","inputs":[{"name":"_preCrime","type":"address","internalType":"address"}],"outputs":[],"stateMutability":"nonpayable"},{"type":"function","name":"transferOwnership","inputs":[{"name":"newOwner","type":"address","internalType":"address"}],"outputs":[],"stateMutability":"nonpayable"},{"type":"event","name":"Initialized","inputs":[{"name":"version","type":"uint64","indexed":false,"internalType":"uint64"}],"anonymous":false},{"type":"event","name":"OwnershipTransferred","inputs":[{"name":"previousOwner","type":"address","indexed":true,"internalType":"address"},{"name":"newOwner","type":"address","indexed":true,"internalType":"address"}],"anonymous":false},{"type":"event","name":"PreCrimeSet","inputs":[{"name":"preCrimeAddress","type":"address","indexed":false,"internalType":"address"}],"anonymous":false},{"type":"error","name":"InvalidEid","inputs":[]},{"type":"error","name":"InvalidInitialization","inputs":[]},{"type":"error","name":"NotInitializing","inputs":[]},{"type":"error","name":"OnlySelf","inputs":[]},{"type":"error","name":"OwnableInvalidOwner","inputs":[{"name":"owner","type":"address","internalType":"address"}]},{"type":"error","name":"OwnableUnauthorizedAccount","inputs":[{"name":"account","type":"address","internalType":"address"}]},{"type":"error","name":"SimulationResult","inputs":[{"name":"result","type":"bytes","internalType":"bytes"}]}],"bytecode":{"object":"0x608060405234801561000f575f80fd5b50610b8d8061001d5f395ff3fe60806040526004361061009a575f3560e01c8063b731ea0a11610062578063b731ea0a1461014c578063bd815db014610160578063c4d66de814610173578063d045a0dc14610192578063d4243885146101a5578063f2fde38b146101c4575f80fd5b806306661abd1461009e57806352ae2879146100c55780635a0dfe4d146100eb578063715018a6146101225780638da5cb5b14610138575b5f80fd5b3480156100a9575f80fd5b506100b25f5481565b6040519081526020015b60405180910390f35b3480156100d0575f80fd5b50305b6040516001600160a01b0390911681526020016100bc565b3480156100f6575f80fd5b50610112610105366004610732565b63ffffffff919091161490565b60405190151581526020016100bc565b34801561012d575f80fd5b506101366101e3565b005b348015610143575f80fd5b506100d36101f6565b348015610157575f80fd5b506100d361022a565b61013661016e36600461075a565b610252565b34801561017e575f80fd5b5061013661018d3660046107df565b6103ca565b6101366101a0366004610844565b6104d8565b3480156101b0575f80fd5b506101366101bf3660046107df565b610510565b3480156101cf575f80fd5b506101366101de3660046107df565b61058b565b6101eb6105c8565b6101f45f6105fa565b565b5f807f9016d09d72d40fdae2fd8ceac6b6234c7706214fd39c1cd1e609a0528c1993005b546001600160a01b031692915050565b5f807fefb041d771d6daaa55702fff6eb740d63ba559a75d2d1d3e151c78ff2480b60061021a565b5f5b81811015610344573683838381811061026f5761026f6108e2565b905060200281019061028191906108f6565b90506102a26102936020830183610915565b63ffffffff1660208301351490565b6102ac575061033c565b3063d045a0dc60c08301358360a08101356102cb61010083018361092e565b6102dc610100890160e08a016107df565b6102ea6101208a018a61092e565b6040518963ffffffff1660e01b815260040161030c9796959493929190610999565b5f604051808303818588803b158015610323575f80fd5b505af1158015610335573d5f803e3d5ffd5b5050505050505b600101610254565b50336001600160a01b0316638e9e70996040518163ffffffff1660e01b81526004015f60405180830381865afa158015610380573d5f803e3d5ffd5b505050506040513d5f823e601f3d908101601f191682016040526103a79190810190610a59565b604051638351eea760e01b81526004016103c19190610b01565b60405180910390fd5b7ff0c57e16840df040f15088dc2f81fe391c3923bec73e23a9662efc9c229c6a008054600160401b810460ff16159067ffffffffffffffff165f8115801561040f5750825b90505f8267ffffffffffffffff16600114801561042b5750303b155b905081158015610439575080155b156104575760405163f92ee8a960e01b815260040160405180910390fd5b845467ffffffffffffffff19166001178555831561048157845460ff60401b1916600160401b1785555b61048a8661066a565b83156104d057845460ff60401b19168555604051600181527fc7f505b2f371ae2175ee4913f4499e1f2633a7b5936321eed1cdaeb6115181d29060200160405180910390a15b505050505050565b3330146104f85760405163029a949d60e31b815260040160405180910390fd5b6105078787878787878761067b565b50505050505050565b6105186105c8565b7fefb041d771d6daaa55702fff6eb740d63ba559a75d2d1d3e151c78ff2480b60080546001600160a01b0383166001600160a01b03199091168117825560408051918252517fd48d879cef83a1c0bdda516f27b13ddb1b3f8bbac1c9e1511bb2a659c24277609181900360200190a15050565b6105936105c8565b6001600160a01b0381166105bc57604051631e4fbdf760e01b81525f60048201526024016103c1565b6105c5816105fa565b50565b336105d16101f6565b6001600160a01b0316146101f45760405163118cdaa760e01b81523360048201526024016103c1565b7f9016d09d72d40fdae2fd8ceac6b6234c7706214fd39c1cd1e609a0528c19930080546001600160a01b031981166001600160a01b03848116918217845560405192169182907f8be0079c531659141344cd1fd0a4f28419497f9722a3daafe3b4186f6b6457e0905f90a3505050565b6106726106c9565b6105c581610712565b6106886020880188610915565b63ffffffff165f036106ad57604051634d30e69360e11b815260040160405180910390fd5b5f805490806106bb83610b33565b919050555050505050505050565b7ff0c57e16840df040f15088dc2f81fe391c3923bec73e23a9662efc9c229c6a0054600160401b900460ff166101f457604051631afcd79f60e31b815260040160405180910390fd5b6105936106c9565b803563ffffffff8116811461072d575f80fd5b919050565b5f8060408385031215610743575f80fd5b61074c8361071a565b946020939093013593505050565b5f806020838503121561076b575f80fd5b823567ffffffffffffffff80821115610782575f80fd5b818501915085601f830112610795575f80fd5b8135818111156107a3575f80fd5b8660208260051b85010111156107b7575f80fd5b60209290920196919550909350505050565b80356001600160a01b038116811461072d575f80fd5b5f602082840312156107ef575f80fd5b6107f8826107c9565b9392505050565b5f8083601f84011261080f575f80fd5b50813567ffffffffffffffff811115610826575f80fd5b60208301915083602082850101111561083d575f80fd5b9250929050565b5f805f805f805f87890360e081121561085b575f80fd5b6060811215610868575f80fd5b5087965060608801359550608088013567ffffffffffffffff8082111561088d575f80fd5b6108998b838c016107ff565b90975095508591506108ad60a08b016107c9565b945060c08a01359150808211156108c2575f80fd5b506108cf8a828b016107ff565b989b979a50959850939692959293505050565b634e487b7160e01b5f52603260045260245ffd5b5f823561013e1983360301811261090b575f80fd5b9190910192915050565b5f60208284031215610925575f80fd5b6107f88261071a565b5f808335601e19843603018112610943575f80fd5b83018035915067ffffffffffffffff82111561095d575f80fd5b60200191503681900382131561083d575f80fd5b81835281816020850137505f828201602090810191909152601f909101601f19169091010190565b63ffffffff6109a78961071a565b168152602088013560208201525f604089013567ffffffffffffffff81168082146109d0575f80fd5b806040850152505087606083015260e060808301526109f360e083018789610971565b6001600160a01b03861660a084015282810360c0840152610a15818587610971565b9a9950505050505050505050565b634e487b7160e01b5f52604160045260245ffd5b5f5b83811015610a51578181015183820152602001610a39565b50505f910152565b5f60208284031215610a69575f80fd5b815167ffffffffffffffff80821115610a80575f80fd5b818401915084601f830112610a93575f80fd5b815181811115610aa557610aa5610a23565b604051601f8201601f19908116603f01168101908382118183101715610acd57610acd610a23565b81604052828152876020848701011115610ae5575f80fd5b610af6836020830160208801610a37565b979650505050505050565b602081525f8251806020840152610b1f816040850160208701610a37565b601f01601f19169190910160400192915050565b5f60018201610b5057634e487b7160e01b5f52601160045260245ffd5b506001019056fea26469706673582212206af6cb1d38f0a9b12a2affdab82da04a89960d2217b662be1178535bbb263d9364736f6c63430008160033","linkReferences":{}},"methodIdentifiers":{"count()":"06661abd","initialize(address)":"c4d66de8","isPeer(uint32,bytes32)":"5a0dfe4d","lzReceiveAndRevert(((uint32,bytes32,uint64),uint32,address,bytes32,uint256,address,bytes,bytes)[])":"bd815db0","lzReceiveSimulate((uint32,bytes32,uint64),bytes32,bytes,address,bytes)":"d045a0dc","oApp()":"52ae2879","owner()":"8da5cb5b","preCrime()":"b731ea0a","renounceOwnership()":"715018a6","setPreCrime(address)":"d4243885","transferOwnership(address)":"f2fde38b"},"id":137}