{"abi":[{"type":"constructor","inputs":[{"name":"_endpoint","type":"address","internalType":"address"},{"name":"_simulator","type":"address","internalType":"address"}],"stateMutability":"nonpayable"},{"type":"function","name":"buildSimulationResult","inputs":[],"outputs":[{"name":"","type":"bytes","internalType":"bytes"}],"stateMutability":"view"},{"type":"function","name":"eids","inputs":[{"name":"","type":"uint256","internalType":"uint256"}],"outputs":[{"name":"","type":"uint32","internalType":"uint32"}],"stateMutability":"view"},{"type":"function","name":"getConfig","inputs":[{"name":"_packets","type":"bytes[]","internalType":"bytes[]"},{"name":"_packetMsgValues","type":"uint256[]","internalType":"uint256[]"}],"outputs":[{"name":"","type":"bytes","internalType":"bytes"}],"stateMutability":"nonpayable"},{"type":"function","name":"getPreCrimePeers","inputs":[],"outputs":[{"name":"","type":"tuple[]","internalType":"struct PreCrimePeer[]","components":[{"name":"eid","type":"uint32","internalType":"uint32"},{"name":"preCrime","type":"bytes32","internalType":"bytes32"},{"name":"oApp","type":"bytes32","internalType":"bytes32"}]}],"stateMutability":"view"},{"type":"function","name":"initialize","inputs":[{"name":"_delegate","type":"address","internalType":"address"}],"outputs":[],"stateMutability":"nonpayable"},{"type":"function","name":"maxBatchSize","inputs":[],"outputs":[{"name":"","type":"uint64","internalType":"uint64"}],"stateMutability":"view"},{"type":"function","name":"oApp","inputs":[],"outputs":[{"name":"","type":"address","internalType":"address"}],"stateMutability":"view"},{"type":"function","name":"owner","inputs":[],"outputs":[{"name":"","type":"address","internalType":"address"}],"stateMutability":"view"},{"type":"function","name":"preCrime","inputs":[{"name":"_packets","type":"bytes[]","internalType":"bytes[]"},{"name":"_packetMsgValues","type":"uint256[]","internalType":"uint256[]"},{"name":"_simulations","type":"bytes[]","internalType":"bytes[]"}],"outputs":[],"stateMutability":"nonpayable"},{"type":"function","name":"renounceOwnership","inputs":[],"outputs":[],"stateMutability":"nonpayable"},{"type":"function","name":"results","inputs":[{"name":"","type":"uint256","internalType":"uint256"}],"outputs":[{"name":"","type":"bytes","internalType":"bytes"}],"stateMutability":"view"},{"type":"function","name":"setMaxBatchSize","inputs":[{"name":"_maxBatchSize","type":"uint64","internalType":"uint64"}],"outputs":[],"stateMutability":"nonpayable"},{"type":"function","name":"setPreCrimePeers","inputs":[{"name":"_preCrimePeers","type":"tuple[]","internalType":"struct PreCrimePeer[]","components":[{"name":"eid","type":"uint32","internalType":"uint32"},{"name":"preCrime","type":"bytes32","internalType":"bytes32"},{"name":"oApp","type":"bytes32","internalType":"bytes32"}]}],"outputs":[],"stateMutability":"nonpayable"},{"type":"function","name":"simulate","inputs":[{"name":"_packets","type":"bytes[]","internalType":"bytes[]"},{"name":"_packetMsgValues","type":"uint256[]","internalType":"uint256[]"}],"outputs":[{"name":"","type":"bytes","internalType":"bytes"}],"stateMutability":"payable"},{"type":"function","name":"simulator","inputs":[],"outputs":[{"name":"","type":"address","internalType":"address"}],"stateMutability":"view"},{"type":"function","name":"transferOwnership","inputs":[{"name":"newOwner","type":"address","internalType":"address"}],"outputs":[],"stateMutability":"nonpayable"},{"type":"function","name":"version","inputs":[],"outputs":[{"name":"major","type":"uint64","internalType":"uint64"},{"name":"minor","type":"uint8","internalType":"uint8"}],"stateMutability":"pure"},{"type":"event","name":"Initialized","inputs":[{"name":"version","type":"uint64","indexed":false,"internalType":"uint64"}],"anonymous":false},{"type":"event","name":"OwnershipTransferred","inputs":[{"name":"previousOwner","type":"address","indexed":true,"internalType":"address"},{"name":"newOwner","type":"address","indexed":true,"internalType":"address"}],"anonymous":false},{"type":"error","name":"CrimeFound","inputs":[{"name":"crime","type":"bytes","internalType":"bytes"}]},{"type":"error","name":"InvalidInitialization","inputs":[]},{"type":"error","name":"InvalidSimulationResult","inputs":[{"name":"eid","type":"uint32","internalType":"uint32"},{"name":"reason","type":"bytes","internalType":"bytes"}]},{"type":"error","name":"NotInitializing","inputs":[]},{"type":"error","name":"OnlyOffChain","inputs":[]},{"type":"error","name":"OwnableInvalidOwner","inputs":[{"name":"owner","type":"address","internalType":"address"}]},{"type":"error","name":"OwnableUnauthorizedAccount","inputs":[{"name":"account","type":"address","internalType":"address"}]},{"type":"error","name":"PacketOversize","inputs":[{"name":"max","type":"uint256","internalType":"uint256"},{"name":"actual","type":"uint256","internalType":"uint256"}]},{"type":"error","name":"PacketUnsorted","inputs":[]},{"type":"error","name":"SimulationFailed","inputs":[{"name":"reason","type":"bytes","internalType":"bytes"}]},{"type":"error","name":"SimulationResultNotFound","inputs":[{"name":"eid","type":"uint32","internalType":"uint32"}]}],"bytecode":{"object":"0x60e060405234801562000010575f80fd5b5060405162002548380380620025488339810160408190526200003391620000e1565b6001600160a01b03808316608052811660a0819052604080516352ae287960e01b815290518492849290916352ae2879916004808201926020929091908290030181865afa15801562000088573d5f803e3d5ffd5b505050506040513d601f19601f82011682018060405250810190620000ae919062000117565b6001600160a01b031660c052506200013a92505050565b80516001600160a01b0381168114620000dc575f80fd5b919050565b5f8060408385031215620000f3575f80fd5b620000fe83620000c5565b91506200010e60208401620000c5565b90509250929050565b5f6020828403121562000128575f80fd5b6200013382620000c5565b9392505050565b60805160a05160c0516123b96200018f5f395f81816101df015261150901525f81816102ee015281816106f401528181610ed501528181611038015261126e01525f818161146f015261154601526123b95ff3fe6080604052600436106100fa575f3560e01c80638da5cb5b11610092578063bf7b5d7a11610062578063bf7b5d7a146102dd578063c4d66de814610310578063f0cd38361461032f578063f2fde38b1461034e578063f8bcddf61461036d575f80fd5b80638da5cb5b1461024d5780638e9e709914610289578063afea44ef1461029d578063b9a1f5e7146102bc575f80fd5b806350dfa937116100cd57806350dfa937146101bb57806352ae2879146101ce57806354fd4d5014610219578063715018a614610239575f80fd5b806310f9cf3a146100fe5780631b0c27da1461011f5780632913daa014610154578063336859f514610187575b5f80fd5b348015610109575f80fd5b5061011d610118366004611ab8565b61038c565b005b34801561012a575f80fd5b5061013e610139366004611b4a565b610581565b60405161014b9190611bae565b60405180910390f35b34801561015f575f80fd5b505f80516020612364833981519152546040516001600160401b03909116815260200161014b565b348015610192575f80fd5b506101a66101a1366004611b4a565b610627565b60405163ffffffff909116815260200161014b565b61013e6101c9366004611bc0565b61065d565b3480156101d9575f80fd5b506102017f000000000000000000000000000000000000000000000000000000000000000081565b6040516001600160a01b03909116815260200161014b565b348015610224575f80fd5b5060408051600281525f60208201520161014b565b348015610244575f80fd5b5061011d6106dd565b348015610258575f80fd5b507f9016d09d72d40fdae2fd8ceac6b6234c7706214fd39c1cd1e609a0528c199300546001600160a01b0316610201565b348015610294575f80fd5b5061013e6106f0565b3480156102a8575f80fd5b5061011d6102b7366004611c3a565b610798565b3480156102c7575f80fd5b506102d06107cf565b60405161014b9190611c55565b3480156102e8575f80fd5b506102017f000000000000000000000000000000000000000000000000000000000000000081565b34801561031b575f80fd5b5061011d61032a366004611cb3565b61085c565b34801561033a575f80fd5b5061013e610349366004611bc0565b610968565b348015610359575f80fd5b5061011d610368366004611cb3565b610b6d565b348015610378575f80fd5b5061011d610387366004611cd9565b610baf565b3361dead146103ae57604051634e5ff03360e11b815260040160405180910390fd5b5f6103ec87878787808060200260200160405190810160405280939291908181526020018383602002808284375f92019190915250610c4c92505050565b90505f826001600160401b0381111561040757610407611d47565b604051908082528060200260200182016040528015610430578160200160208202803683370190505b5090505f836001600160401b0381111561044c5761044c611d47565b60405190808252806020026020018201604052801561047f57816020015b606081526020019060019003908161046a5790505b5090505f5b8481101561056057365f8787848181106104a0576104a0611d5b565b90506020028101906104b29190611d6f565b90925090506104c460045f8385611db1565b6104cd91611dd8565b60e01c8584815181106104e2576104e2611d5b565b63ffffffff909216602092830291909101909101526105048160048185611db1565b8080601f0160208091040260200160405190810160405280939291908181526020018383808284375f92019190915250508651879250869150811061054b5761054b611d5b565b60209081029190910101525050600101610484565b5061056b8383610d4a565b610576838383610e00565b505050505050505050565b60018181548110610590575f80fd5b905f5260205f20015f9150905080546105a890611e08565b80601f01602080910402602001604051908101604052809291908181526020018280546105d490611e08565b801561061f5780601f106105f65761010080835404028352916020019161061f565b820191905f5260205f20905b81548152906001019060200180831161060257829003601f168201915b505050505081565b5f8181548110610635575f80fd5b905f5260205f209060089182820401919006600402915054906101000a900463ffffffff1681565b60603361dead1461068157604051634e5ff03360e11b815260040160405180910390fd5b5f6106bf86868686808060200260200160405190810160405280939291908181526020018383602002808284375f92019190915250610c4c92505050565b90506106ca81610e26565b6106d381611032565b9695505050505050565b6106e561113c565b6106ee5f611197565b565b60607f00000000000000000000000000000000000000000000000000000000000000006001600160a01b03166306661abd6040518163ffffffff1660e01b8152600401602060405180830381865afa15801561074e573d5f803e3d5ffd5b505050506040513d601f19601f820116820180604052508101906107729190611e40565b60405160200161078491815260200190565b604051602081830303815290604052905090565b6107a061113c565b5f80516020612364833981519152805467ffffffffffffffff19166001600160401b0392909216919091179055565b60605f5f80516020612364833981519152600181018054604080516020808402820181019092528281529394505f9084015b82821015610852575f8481526020908190206040805160608101825260038602909201805463ffffffff16835260018082015484860152600290910154918301919091529083529092019101610801565b5050505091505090565b7ff0c57e16840df040f15088dc2f81fe391c3923bec73e23a9662efc9c229c6a008054600160401b810460ff1615906001600160401b03165f811580156108a05750825b90505f826001600160401b031660011480156108bb5750303b155b9050811580156108c9575080155b156108e75760405163f92ee8a960e01b815260040160405180910390fd5b845467ffffffffffffffff19166001178555831561091157845460ff60401b1916600160401b1785555b61091a86611207565b831561096057845460ff60401b19168555604051600181527fc7f505b2f371ae2175ee4913f4499e1f2633a7b5936321eed1cdaeb6115181d29060200160405180910390a15b505050505050565b60603361dead1461098c57604051634e5ff03360e11b815260040160405180910390fd5b5f80516020612364833981519152805460408051600160f11b602082015260c09290921b6001600160c01b03191660228301528051808303600a018152602a90920190525f8615610a2157610a1c610a1789898989808060200260200160405190810160405280939291908181526020018383602002808284375f92019190915250610c4c92505050565b611218565b610a9a565b82600101805480602002602001604051908101604052809291908181526020015f905b82821015610a95575f8481526020908190206040805160608101825260038602909201805463ffffffff16835260018082015484860152600290910154918301919091529083529092019101610a44565b505050505b805190915015610b62578051604051610ab99084908390602001611e57565b60405160208183030381529060405292505f5b8161ffff16811015610b5f5783838281518110610aeb57610aeb611d5b565b60200260200101515f0151848381518110610b0857610b08611d5b565b602002602001015160200151858481518110610b2657610b26611d5b565b602002602001015160400151604051602001610b459493929190611e88565b60408051601f198184030181529190529350600101610acc565b50505b509695505050505050565b610b7561113c565b6001600160a01b038116610ba357604051631e4fbdf760e01b81525f60048201526024015b60405180910390fd5b610bac81611197565b50565b610bb761113c565b5f80516020612364833981519152610bef7f56af11d8938063b7ae95a808f88d40c589be3bbf4cb6facdbc642a7b38e01f015f611872565b5f5b82811015610c465781600101848483818110610c0f57610c0f611d5b565b83546001810185555f9485526020909420606090910292909201926003029091019050610c3c8282611ed7565b5050600101610bf1565b50505050565b6060826001600160401b03811115610c6657610c66611d47565b604051908082528060200260200182016040528015610c9f57816020015b610c8c611890565b815260200190600190039081610c845790505b5090505f5b83811015610d4257365f868684818110610cc057610cc0611d5b565b9050602002810190610cd29190611d6f565b91509150610ce08282611345565b848481518110610cf257610cf2611d5b565b6020026020010181905250848381518110610d0f57610d0f611d5b565b6020026020010151848481518110610d2957610d29611d5b565b6020908102919091010151608001525050600101610ca4565b509392505050565b815115610dc2575f610d5b83611218565b90505f5b8151811015610dbf575f828281518110610d7b57610d7b611d5b565b60200260200101515f01519050610d928482611417565b610db65760405162cc979560e11b815263ffffffff82166004820152602401610b9a565b50600101610d5f565b50505b5f610dcb61146c565b9050610dd78282611417565b610dfb5760405162cc979560e11b815263ffffffff82166004820152602401610b9a565b505050565b8151610e12905f9060208501906118ec565b508051610c46906001906020840190611998565b5f80516020612364833981519152805482516001600160401b039091161015610e775780548251604051639db0860560e01b81526001600160401b0390921660048301526024820152604401610b9a565b81511561102e575f8080805b8551811015610960575f868281518110610e9f57610e9f611d5b565b60209081029190910181015180518051920151604051635a0dfe4d60e01b815263ffffffff9093166004840152602483015291507f00000000000000000000000000000000000000000000000000000000000000006001600160a01b031690635a0dfe4d90604401602060405180830381865afa158015610f22573d5f803e3d5ffd5b505050506040513d601f19601f82011682018060405250810190610f469190611f0e565b610f505750611026565b80515163ffffffff80871691161080610f82575080515163ffffffff8681169116148015610f82575080516020015184115b15610fa0576040516350823c8560e01b815260040160405180910390fd5b80515163ffffffff8681169116141580610fbf57508051602001518414155b15610fe057805180516020909101519095509350610fdd85856114f2565b92505b610fe983611f41565b9250826001600160401b0316815f0151604001516001600160401b031614611024576040516350823c8560e01b815260040160405180910390fd5b505b600101610e83565b5050565b60605f807f00000000000000000000000000000000000000000000000000000000000000006001600160a01b03163463bd815db060e01b8660405160240161107a9190611f66565b60408051601f198184030181529181526020820180516001600160e01b03166001600160e01b03199094169390931790925290516110b8919061208c565b5f6040518083038185875af1925050503d805f81146110f2576040519150601f19603f3d011682016040523d82523d5f602084013e6110f7565b606091505b50915091505f61110783836115b8565b905061111161146c565b816040516020016111239291906120a7565b6040516020818303038152906040529350505050919050565b3361116e7f9016d09d72d40fdae2fd8ceac6b6234c7706214fd39c1cd1e609a0528c199300546001600160a01b031690565b6001600160a01b0316146106ee5760405163118cdaa760e01b8152336004820152602401610b9a565b7f9016d09d72d40fdae2fd8ceac6b6234c7706214fd39c1cd1e609a0528c19930080546001600160a01b031981166001600160a01b03848116918217845560405192169182907f8be0079c531659141344cd1fd0a4f28419497f9722a3daafe3b4186f6b6457e0905f90a3505050565b61120f611660565b610bac816116a9565b60605f5b82518110156112fd575f83828151811061123857611238611d5b565b60209081029190910181015180518051920151604051635a0dfe4d60e01b815263ffffffff9093166004840152602483015291507f00000000000000000000000000000000000000000000000000000000000000006001600160a01b031690635a0dfe4d90604401602060405180830381865afa1580156112bb573d5f803e3d5ffd5b505050506040513d601f19601f820116820180604052508101906112df9190611f0e565b156112f4576112ec6107cf565b949350505050565b5060010161121c565b50604080515f808252602082019092529061133e565b604080516060810182525f80825260208083018290529282015282525f199092019101816113135790505b5092915050565b61134d611890565b604051806060016040528061136285856116b1565b63ffffffff16815260200161137785856116d3565b815260200161138685856116eb565b6001600160401b03169052815261139d838361170d565b63ffffffff1660208201526113b2838361171c565b6001600160a01b031660408201526113ca838361172d565b60608201526113d9838361173c565b8080601f0160208091040260200160405190810160405280939291908181526020018383808284375f9201919091525050505060c082015292915050565b5f805b8351811015611461578263ffffffff1684828151811061143c5761143c611d5b565b602002602001015163ffffffff1603611459576001915050611466565b60010161141a565b505f90505b92915050565b5f7f00000000000000000000000000000000000000000000000000000000000000006001600160a01b031663416ecebf6040518163ffffffff1660e01b8152600401602060405180830381865afa1580156114c9573d5f803e3d5ffd5b505050506040513d601f19601f820116820180604052508101906114ed91906120d8565b905090565b60405163283750ff60e21b81526001600160a01b037f00000000000000000000000000000000000000000000000000000000000000008116600483015263ffffffff84166024830152604482018390525f917f00000000000000000000000000000000000000000000000000000000000000009091169063a0dd43fc90606401602060405180830381865afa15801561158d573d5f803e3d5ffd5b505050506040513d601f19601f820116820180604052508101906115b191906120f3565b9392505050565b606082156115f5576040516330a65ec560e11b81526020600482015260096024820152681b9bc81c995d995c9d60ba1b6044820152606401610b9a565b638351eea760e01b6116068361210e565b6001600160e01b0319161461163057816040516330a65ec560e11b8152600401610b9a9190611bae565b61164a60048084516116429190612145565b849190611757565b9050808060200190518101906115b19190612158565b7ff0c57e16840df040f15088dc2f81fe391c3923bec73e23a9662efc9c229c6a0054600160401b900460ff166106ee57604051631afcd79f60e31b815260040160405180910390fd5b610b75611660565b5f6116c0600d60098486611db1565b6116c991611dd8565b60e01c9392505050565b5f6116e2602d600d8486611db1565b6115b1916121ff565b5f6116fa600960018486611db1565b6117039161221c565b60c01c9392505050565b5f6116c06031602d8486611db1565b5f6115b161172a8484611863565b90565b5f6116e2607160518486611db1565b365f61174b8360718187611db1565b915091505b9250929050565b60608161176581601f61224a565b10156117a45760405162461bcd60e51b815260206004820152600e60248201526d736c6963655f6f766572666c6f7760901b6044820152606401610b9a565b6117ae828461224a565b845110156117f25760405162461bcd60e51b8152602060048201526011602482015270736c6963655f6f75744f66426f756e647360781b6044820152606401610b9a565b6060821580156118105760405191505f82526020820160405261185a565b6040519150601f8416801560200281840101858101878315602002848b0101015b81831015611849578051835260209283019201611831565b5050858452601f01601f1916604052505b50949350505050565b5f6116e2605160318486611db1565b5080545f8255600302905f5260205f2090810190610bac91906119e8565b60408051610160810182525f61010082018181526101208301829052610140830182905282526020820181905291810182905260608082018390526080820183905260a082019290925260c0810182905260e081019190915290565b828054828255905f5260205f2090600701600890048101928215611988579160200282015f5b8382111561195657835183826101000a81548163ffffffff021916908363ffffffff1602179055509260200192600401602081600301049283019260010302611912565b80156119865782816101000a81549063ffffffff0219169055600401602081600301049283019260010302611956565b505b50611994929150611a11565b5090565b828054828255905f5260205f209081019282156119dc579160200282015b828111156119dc57825182906119cc90826122a8565b50916020019190600101906119b6565b50611994929150611a25565b5b8082111561199457805463ffffffff191681555f6001820181905560028201556003016119e9565b5b80821115611994575f8155600101611a12565b80821115611994575f611a388282611a41565b50600101611a25565b508054611a4d90611e08565b5f825580601f10611a5c575050565b601f0160209004905f5260205f2090810190610bac9190611a11565b5f8083601f840112611a88575f80fd5b5081356001600160401b03811115611a9e575f80fd5b6020830191508360208260051b8501011115611750575f80fd5b5f805f805f8060608789031215611acd575f80fd5b86356001600160401b0380821115611ae3575f80fd5b611aef8a838b01611a78565b90985096506020890135915080821115611b07575f80fd5b611b138a838b01611a78565b90965094506040890135915080821115611b2b575f80fd5b50611b3889828a01611a78565b979a9699509497509295939492505050565b5f60208284031215611b5a575f80fd5b5035919050565b5f5b83811015611b7b578181015183820152602001611b63565b50505f910152565b5f8151808452611b9a816020860160208601611b61565b601f01601f19169290920160200192915050565b602081525f6115b16020830184611b83565b5f805f8060408587031215611bd3575f80fd5b84356001600160401b0380821115611be9575f80fd5b611bf588838901611a78565b90965094506020870135915080821115611c0d575f80fd5b50611c1a87828801611a78565b95989497509550505050565b6001600160401b0381168114610bac575f80fd5b5f60208284031215611c4a575f80fd5b81356115b181611c26565b602080825282518282018190525f919060409081850190868401855b82811015611ca6578151805163ffffffff16855286810151878601528501518585015260609093019290850190600101611c71565b5091979650505050505050565b5f60208284031215611cc3575f80fd5b81356001600160a01b03811681146115b1575f80fd5b5f8060208385031215611cea575f80fd5b82356001600160401b0380821115611d00575f80fd5b818501915085601f830112611d13575f80fd5b813581811115611d21575f80fd5b866020606083028501011115611d35575f80fd5b60209290920196919550909350505050565b634e487b7160e01b5f52604160045260245ffd5b634e487b7160e01b5f52603260045260245ffd5b5f808335601e19843603018112611d84575f80fd5b8301803591506001600160401b03821115611d9d575f80fd5b602001915036819003821315611750575f80fd5b5f8085851115611dbf575f80fd5b83861115611dcb575f80fd5b5050820193919092039150565b6001600160e01b03198135818116916004851015611e005780818660040360031b1b83161692505b505092915050565b600181811c90821680611e1c57607f821691505b602082108103611e3a57634e487b7160e01b5f52602260045260245ffd5b50919050565b5f60208284031215611e50575f80fd5b5051919050565b5f8351611e68818460208801611b61565b60f09390931b6001600160f01b0319169190920190815260020192915050565b5f8551611e99818460208a01611b61565b60e09590951b6001600160e01b031916919094019081526004810192909252602482015260440192915050565b63ffffffff81168114610bac575f80fd5b8135611ee281611ec6565b63ffffffff811663ffffffff198354161782555060208201356001820155604082013560028201555050565b5f60208284031215611f1e575f80fd5b815180151581146115b1575f80fd5b634e487b7160e01b5f52601160045260245ffd5b5f6001600160401b03808316818103611f5c57611f5c611f2d565b6001019392505050565b5f60208083018184528085518083526040925060408601915060408160051b8701018488015f5b8381101561207e57888303603f1901855281518051805163ffffffff168552602080820151908601526040908101516001600160401b031690850152610140888201516060611fe38188018363ffffffff169052565b8984015191506080611fff818901846001600160a01b03169052565b9084015160a0888101919091529084015160c08089019190915290840151915060e090612036828901846001600160a01b03169052565b8401516101008801849052915061204f87840183611b83565b93015186840361012088015292915061206a90508183611b83565b968901969450505090860190600101611f8d565b509098975050505050505050565b5f825161209d818460208701611b61565b9190910192915050565b63ffffffff60e01b8360e01b1681525f82516120ca816004850160208701611b61565b919091016004019392505050565b5f602082840312156120e8575f80fd5b81516115b181611ec6565b5f60208284031215612103575f80fd5b81516115b181611c26565b805160208201516001600160e01b0319808216929190600483101561213d5780818460040360031b1b83161693505b505050919050565b8181038181111561146657611466611f2d565b5f60208284031215612168575f80fd5b81516001600160401b038082111561217e575f80fd5b818401915084601f830112612191575f80fd5b8151818111156121a3576121a3611d47565b604051601f8201601f19908116603f011681019083821181831017156121cb576121cb611d47565b816040528281528760208487010111156121e3575f80fd5b6121f4836020830160208801611b61565b979650505050505050565b80356020831015611466575f19602084900360031b1b1692915050565b6001600160c01b03198135818116916008851015611e005760089490940360031b84901b1690921692915050565b8082018082111561146657611466611f2d565b601f821115610dfb57805f5260205f20601f840160051c810160208510156122825750805b601f840160051c820191505b818110156122a1575f815560010161228e565b5050505050565b81516001600160401b038111156122c1576122c1611d47565b6122d5816122cf8454611e08565b8461225d565b602080601f831160018114612308575f84156122f15750858301515b5f19600386901b1c1916600185901b178555610960565b5f85815260208120601f198616915b8281101561233657888601518255948401946001909101908401612317565b508582101561235357878501515f19600388901b60f8161c191681555b5050505050600190811b0190555056fe56af11d8938063b7ae95a808f88d40c589be3bbf4cb6facdbc642a7b38e01f00a2646970667358221220d21a469cb98b92b53b3347f4eef6309f8a645faa4385b312ff528cba25e9833264736f6c63430008160033","linkReferences":{}},"methodIdentifiers":{"buildSimulationResult()":"8e9e7099","eids(uint256)":"336859f5","getConfig(bytes[],uint256[])":"f0cd3836","getPreCrimePeers()":"b9a1f5e7","initialize(address)":"c4d66de8","maxBatchSize()":"2913daa0","oApp()":"52ae2879","owner()":"8da5cb5b","preCrime(bytes[],uint256[],bytes[])":"10f9cf3a","renounceOwnership()":"715018a6","results(uint256)":"1b0c27da","setMaxBatchSize(uint64)":"afea44ef","setPreCrimePeers((uint32,bytes32,bytes32)[])":"f8bcddf6","simulate(bytes[],uint256[])":"50dfa937","simulator()":"bf7b5d7a","transferOwnership(address)":"f2fde38b","version()":"54fd4d50"},"id":138}